{
  "contractName": "AaveFlashLoan",
  "abi": [
    {
      "inputs": [
        {
          "internalType": "contract IPoolAddressesProvider",
          "name": "_provider",
          "type": "address"
        },
        {
          "internalType": "contract ISwapRouter",
          "name": "_swapRouter",
          "type": "address"
        }
      ],
      "stateMutability": "nonpayable",
      "type": "constructor"
    },
    {
      "anonymous": false,
      "inputs": [
        {
          "indexed": false,
          "internalType": "uint256",
          "name": "_ReturnAmouint",
          "type": "uint256"
        }
      ],
      "name": "ReturnAmouint",
      "type": "event"
    },
    {
      "inputs": [],
      "name": "ADDRESSES_PROVIDER",
      "outputs": [
        {
          "internalType": "contract IPoolAddressesProvider",
          "name": "",
          "type": "address"
        }
      ],
      "stateMutability": "view",
      "type": "function",
      "constant": true
    },
    {
      "inputs": [],
      "name": "POOL",
      "outputs": [
        {
          "internalType": "contract IPool",
          "name": "",
          "type": "address"
        }
      ],
      "stateMutability": "view",
      "type": "function",
      "constant": true
    },
    {
      "inputs": [],
      "name": "ROUTER",
      "outputs": [
        {
          "internalType": "address",
          "name": "",
          "type": "address"
        }
      ],
      "stateMutability": "view",
      "type": "function",
      "constant": true
    },
    {
      "inputs": [],
      "name": "poolFee",
      "outputs": [
        {
          "internalType": "uint24",
          "name": "",
          "type": "uint24"
        }
      ],
      "stateMutability": "view",
      "type": "function",
      "constant": true
    },
    {
      "inputs": [],
      "name": "swapRouter",
      "outputs": [
        {
          "internalType": "contract ISwapRouter",
          "name": "",
          "type": "address"
        }
      ],
      "stateMutability": "view",
      "type": "function",
      "constant": true
    },
    {
      "inputs": [
        {
          "internalType": "address",
          "name": "asset",
          "type": "address"
        },
        {
          "internalType": "uint256",
          "name": "amount",
          "type": "uint256"
        },
        {
          "internalType": "uint256",
          "name": "premium",
          "type": "uint256"
        },
        {
          "internalType": "address",
          "name": "initiator",
          "type": "address"
        },
        {
          "internalType": "bytes",
          "name": "params",
          "type": "bytes"
        }
      ],
      "name": "executeOperation",
      "outputs": [
        {
          "internalType": "bool",
          "name": "",
          "type": "bool"
        }
      ],
      "stateMutability": "nonpayable",
      "type": "function"
    },
    {
      "inputs": [
        {
          "internalType": "address",
          "name": "asset",
          "type": "address"
        },
        {
          "internalType": "address",
          "name": "_tokenOut",
          "type": "address"
        },
        {
          "internalType": "uint256",
          "name": "amount",
          "type": "uint256"
        },
        {
          "internalType": "uint256",
          "name": "_DEX1",
          "type": "uint256"
        },
        {
          "internalType": "uint256",
          "name": "_DEX2",
          "type": "uint256"
        }
      ],
      "name": "getFlashLoan",
      "outputs": [],
      "stateMutability": "nonpayable",
      "type": "function"
    }
  ],
  "bytecode": "0x60e06040523480156200001157600080fd5b5060405162001cb938038062001cb9833981810160405281019062000037919062000211565b818073ffffffffffffffffffffffffffffffffffffffff1660808173ffffffffffffffffffffffffffffffffffffffff16815250508073ffffffffffffffffffffffffffffffffffffffff1663026b1d5f6040518163ffffffff1660e01b8152600401602060405180830381865afa158015620000b8573d6000803e3d6000fd5b505050506040513d601f19601f82011682018060405250810190620000de919062000289565b73ffffffffffffffffffffffffffffffffffffffff1660a08173ffffffffffffffffffffffffffffffffffffffff1681525050508073ffffffffffffffffffffffffffffffffffffffff1660c08173ffffffffffffffffffffffffffffffffffffffff16815250505050620002bb565b600080fd5b600073ffffffffffffffffffffffffffffffffffffffff82169050919050565b6000620001808262000153565b9050919050565b6000620001948262000173565b9050919050565b620001a68162000187565b8114620001b257600080fd5b50565b600081519050620001c6816200019b565b92915050565b6000620001d98262000173565b9050919050565b620001eb81620001cc565b8114620001f757600080fd5b50565b6000815190506200020b81620001e0565b92915050565b600080604083850312156200022b576200022a6200014e565b5b60006200023b85828601620001b5565b92505060206200024e85828601620001fa565b9150509250929050565b620002638162000173565b81146200026f57600080fd5b50565b600081519050620002838162000258565b92915050565b600060208284031215620002a257620002a16200014e565b5b6000620002b28482850162000272565b91505092915050565b60805160a05160c0516119b2620003076000396000818161089d015281816109790152610a9b015260008181610530015281816107c401526108790152600061016601526119b26000f3fe608060405234801561001057600080fd5b506004361061007d5760003560e01c80631f2632971161005b5780631f263297146100ee57806332fe7b261461010a5780637535d24614610128578063c31c9c07146101465761007d565b80630542975c14610082578063089fe6aa146100a05780631b11d0ff146100be575b600080fd5b61008a610164565b6040516100979190610e46565b60405180910390f35b6100a8610188565b6040516100b59190610e7f565b60405180910390f35b6100d860048036038101906100d39190610f87565b61018e565b6040516100e5919061103c565b60405180910390f35b61010860048036038101906101039190611057565b610759565b005b61011261085f565b60405161011f91906110e1565b60405180910390f35b610130610877565b60405161013d919061111d565b60405180910390f35b61014e61089b565b60405161015b9190611159565b60405180910390f35b7f000000000000000000000000000000000000000000000000000000000000000081565b6101f481565b600080858761019d91906111a3565b90506102576040518060400160405280600981526020017f61737365743a20257300000000000000000000000000000000000000000000008152508973ffffffffffffffffffffffffffffffffffffffff166370a08231306040518263ffffffff1660e01b815260040161021191906110e1565b602060405180830381865afa15801561022e573d6000803e3d6000fd5b505050506040513d601f19601f82011682018060405250810190610252919061120e565b6108bf565b600060015414156102925761028d8860008054906101000a900473ffffffffffffffffffffffffffffffffffffffff168961095b565b6102be565b6102bd8860008054906101000a900473ffffffffffffffffffffffffffffffffffffffff1689610b3c565b5b600060025414156103925761038d60008054906101000a900473ffffffffffffffffffffffffffffffffffffffff168960008054906101000a900473ffffffffffffffffffffffffffffffffffffffff1673ffffffffffffffffffffffffffffffffffffffff166370a08231306040518263ffffffff1660e01b815260040161034791906110e1565b602060405180830381865afa158015610364573d6000803e3d6000fd5b505050506040513d601f19601f82011682018060405250810190610388919061120e565b61095b565b610457565b61045660008054906101000a900473ffffffffffffffffffffffffffffffffffffffff168960008054906101000a900473ffffffffffffffffffffffffffffffffffffffff1673ffffffffffffffffffffffffffffffffffffffff166370a08231306040518263ffffffff1660e01b815260040161041091906110e1565b602060405180830381865afa15801561042d573d6000803e3d6000fd5b505050506040513d601f19601f82011682018060405250810190610451919061120e565b610b3c565b5b808873ffffffffffffffffffffffffffffffffffffffff166370a08231306040518263ffffffff1660e01b815260040161049191906110e1565b602060405180830381865afa1580156104ae573d6000803e3d6000fd5b505050506040513d601f19601f820116820180604052508101906104d2919061120e565b11610512576040517f08c379a000000000000000000000000000000000000000000000000000000000815260040161050990611298565b60405180910390fd5b8773ffffffffffffffffffffffffffffffffffffffff1663095ea7b37f0000000000000000000000000000000000000000000000000000000000000000836040518363ffffffff1660e01b815260040161056d9291906112c7565b6020604051808303816000875af115801561058c573d6000803e3d6000fd5b505050506040513d601f19601f820116820180604052508101906105b0919061131c565b506000818973ffffffffffffffffffffffffffffffffffffffff166370a08231306040518263ffffffff1660e01b81526004016105ed91906110e1565b602060405180830381865afa15801561060a573d6000803e3d6000fd5b505050506040513d601f19601f8201168201806040525081019061062e919061120e565b6106389190611349565b90506106796040518060400160405280601181526020017f73656e644261636b546f6b656e3a202573000000000000000000000000000000815250826108bf565b60007332d55dd4eae334110c26ecb3217af267117922d390508973ffffffffffffffffffffffffffffffffffffffff1663a9059cbb82846040518363ffffffff1660e01b81526004016106cd9291906112c7565b6020604051808303816000875af11580156106ec573d6000803e3d6000fd5b505050506040513d601f19601f82011682018060405250810190610710919061131c565b507fe4def95b675f1911a1dc2c702161d46d597b8e1761c9860ff19f7bac6429558182604051610740919061137d565b60405180910390a1600193505050509695505050505050565b600030905060006040518060200160405280600081525090506000866000806101000a81548173ffffffffffffffffffffffffffffffffffffffff021916908373ffffffffffffffffffffffffffffffffffffffff16021790555084600181905550836002819055507f000000000000000000000000000000000000000000000000000000000000000073ffffffffffffffffffffffffffffffffffffffff166342b0b77c848a8986866040518663ffffffff1660e01b815260040161082395949392919061144e565b600060405180830381600087803b15801561083d57600080fd5b505af1158015610851573d6000803e3d6000fd5b505050505050505050505050565b73a5e0829caced8ffdd4de3c43696c57f7d7a678ff81565b7f000000000000000000000000000000000000000000000000000000000000000081565b7f000000000000000000000000000000000000000000000000000000000000000081565b61095782826040516024016108d59291906114ec565b6040516020818303038152906040527f9710a9d0000000000000000000000000000000000000000000000000000000007bffffffffffffffffffffffffffffffffffffffffffffffffffffffff19166020820180517bffffffffffffffffffffffffffffffffffffffffffffffffffffffff8381831617835250505050610d9e565b5050565b8273ffffffffffffffffffffffffffffffffffffffff1663095ea7b37f0000000000000000000000000000000000000000000000000000000000000000836040518363ffffffff1660e01b81526004016109b69291906112c7565b6020604051808303816000875af11580156109d5573d6000803e3d6000fd5b505050506040513d601f19601f820116820180604052508101906109f9919061131c565b5060006040518061010001604052808573ffffffffffffffffffffffffffffffffffffffff1681526020018473ffffffffffffffffffffffffffffffffffffffff1681526020016101f462ffffff1681526020013073ffffffffffffffffffffffffffffffffffffffff16815260200142815260200183815260200160008152602001600073ffffffffffffffffffffffffffffffffffffffff1681525090507f000000000000000000000000000000000000000000000000000000000000000073ffffffffffffffffffffffffffffffffffffffff1663414bf389826040518263ffffffff1660e01b8152600401610af291906115fa565b6020604051808303816000875af1158015610b11573d6000803e3d6000fd5b505050506040513d601f19601f82011682018060405250810190610b35919061120e565b5050505050565b8273ffffffffffffffffffffffffffffffffffffffff1663095ea7b373a5e0829caced8ffdd4de3c43696c57f7d7a678ff836040518363ffffffff1660e01b8152600401610b8b9291906112c7565b6020604051808303816000875af1158015610baa573d6000803e3d6000fd5b505050506040513d601f19601f82011682018060405250810190610bce919061131c565b610c0d576040517f08c379a0000000000000000000000000000000000000000000000000000000008152600401610c0490611662565b60405180910390fd5b6060600267ffffffffffffffff811115610c2a57610c29611682565b5b604051908082528060200260200182016040528015610c585781602001602082028036833780820191505090505b5090508381600081518110610c7057610c6f6116b1565b5b602002602001019073ffffffffffffffffffffffffffffffffffffffff16908173ffffffffffffffffffffffffffffffffffffffff16815250508281600181518110610cbf57610cbe6116b1565b5b602002602001019073ffffffffffffffffffffffffffffffffffffffff16908173ffffffffffffffffffffffffffffffffffffffff168152505073a5e0829caced8ffdd4de3c43696c57f7d7a678ff73ffffffffffffffffffffffffffffffffffffffff166338ed17398360018430426040518663ffffffff1660e01b8152600401610d4f9594939291906117ca565b6000604051808303816000875af1158015610d6e573d6000803e3d6000fd5b505050506040513d6000823e3d601f19601f82011682018060405250810190610d979190611933565b5050505050565b60008151905060006a636f6e736f6c652e6c6f679050602083016000808483855afa5050505050565b600073ffffffffffffffffffffffffffffffffffffffff82169050919050565b6000819050919050565b6000610e0c610e07610e0284610dc7565b610de7565b610dc7565b9050919050565b6000610e1e82610df1565b9050919050565b6000610e3082610e13565b9050919050565b610e4081610e25565b82525050565b6000602082019050610e5b6000830184610e37565b92915050565b600062ffffff82169050919050565b610e7981610e61565b82525050565b6000602082019050610e946000830184610e70565b92915050565b6000604051905090565b600080fd5b600080fd5b6000610eb982610dc7565b9050919050565b610ec981610eae565b8114610ed457600080fd5b50565b600081359050610ee681610ec0565b92915050565b6000819050919050565b610eff81610eec565b8114610f0a57600080fd5b50565b600081359050610f1c81610ef6565b92915050565b600080fd5b600080fd5b600080fd5b60008083601f840112610f4757610f46610f22565b5b8235905067ffffffffffffffff811115610f6457610f63610f27565b5b602083019150836001820283011115610f8057610f7f610f2c565b5b9250929050565b60008060008060008060a08789031215610fa457610fa3610ea4565b5b6000610fb289828a01610ed7565b9650506020610fc389828a01610f0d565b9550506040610fd489828a01610f0d565b9450506060610fe589828a01610ed7565b935050608087013567ffffffffffffffff81111561100657611005610ea9565b5b61101289828a01610f31565b92509250509295509295509295565b60008115159050919050565b61103681611021565b82525050565b6000602082019050611051600083018461102d565b92915050565b600080600080600060a0868803121561107357611072610ea4565b5b600061108188828901610ed7565b955050602061109288828901610ed7565b94505060406110a388828901610f0d565b93505060606110b488828901610f0d565b92505060806110c588828901610f0d565b9150509295509295909350565b6110db81610eae565b82525050565b60006020820190506110f660008301846110d2565b92915050565b600061110782610e13565b9050919050565b611117816110fc565b82525050565b6000602082019050611132600083018461110e565b92915050565b600061114382610e13565b9050919050565b61115381611138565b82525050565b600060208201905061116e600083018461114a565b92915050565b7f4e487b7100000000000000000000000000000000000000000000000000000000600052601160045260246000fd5b60006111ae82610eec565b91506111b983610eec565b9250827fffffffffffffffffffffffffffffffffffffffffffffffffffffffffffffffff038211156111ee576111ed611174565b5b828201905092915050565b60008151905061120881610ef6565b92915050565b60006020828403121561122457611223610ea4565b5b6000611232848285016111f9565b91505092915050565b600082825260208201905092915050565b7f4e4f5420656e6f75676820746f6b656e20746f2070616964206261636b210000600082015250565b6000611282601e8361123b565b915061128d8261124c565b602082019050919050565b600060208201905081810360008301526112b181611275565b9050919050565b6112c181610eec565b82525050565b60006040820190506112dc60008301856110d2565b6112e960208301846112b8565b9392505050565b6112f981611021565b811461130457600080fd5b50565b600081519050611316816112f0565b92915050565b60006020828403121561133257611331610ea4565b5b600061134084828501611307565b91505092915050565b600061135482610eec565b915061135f83610eec565b92508282101561137257611371611174565b5b828203905092915050565b600060208201905061139260008301846112b8565b92915050565b600081519050919050565b600082825260208201905092915050565b60005b838110156113d25780820151818401526020810190506113b7565b838111156113e1576000848401525b50505050565b6000601f19601f8301169050919050565b600061140382611398565b61140d81856113a3565b935061141d8185602086016113b4565b611426816113e7565b840191505092915050565b600061ffff82169050919050565b61144881611431565b82525050565b600060a08201905061146360008301886110d2565b61147060208301876110d2565b61147d60408301866112b8565b818103606083015261148f81856113f8565b905061149e608083018461143f565b9695505050505050565b600081519050919050565b60006114be826114a8565b6114c8818561123b565b93506114d88185602086016113b4565b6114e1816113e7565b840191505092915050565b6000604082019050818103600083015261150681856114b3565b905061151560208301846112b8565b9392505050565b61152581610eae565b82525050565b61153481610e61565b82525050565b61154381610eec565b82525050565b61155281610dc7565b82525050565b6101008201600082015161156f600085018261151c565b506020820151611582602085018261151c565b506040820151611595604085018261152b565b5060608201516115a8606085018261151c565b5060808201516115bb608085018261153a565b5060a08201516115ce60a085018261153a565b5060c08201516115e160c085018261153a565b5060e08201516115f460e0850182611549565b50505050565b6000610100820190506116106000830184611558565b92915050565b7f617070726f7665206661696c65642e0000000000000000000000000000000000600082015250565b600061164c600f8361123b565b915061165782611616565b602082019050919050565b6000602082019050818103600083015261167b8161163f565b9050919050565b7f4e487b7100000000000000000000000000000000000000000000000000000000600052604160045260246000fd5b7f4e487b7100000000000000000000000000000000000000000000000000000000600052603260045260246000fd5b6000819050919050565b60006117056117006116fb846116e0565b610de7565b610eec565b9050919050565b611715816116ea565b82525050565b600081519050919050565b600082825260208201905092915050565b6000819050602082019050919050565b6000611753838361151c565b60208301905092915050565b6000602082019050919050565b60006117778261171b565b6117818185611726565b935061178c83611737565b8060005b838110156117bd5781516117a48882611747565b97506117af8361175f565b925050600181019050611790565b5085935050505092915050565b600060a0820190506117df60008301886112b8565b6117ec602083018761170c565b81810360408301526117fe818661176c565b905061180d60608301856110d2565b61181a60808301846112b8565b9695505050505050565b61182d826113e7565b810181811067ffffffffffffffff8211171561184c5761184b611682565b5b80604052505050565b600061185f610e9a565b905061186b8282611824565b919050565b600067ffffffffffffffff82111561188b5761188a611682565b5b602082029050602081019050919050565b60006118af6118aa84611870565b611855565b905080838252602082019050602084028301858111156118d2576118d1610f2c565b5b835b818110156118fb57806118e788826111f9565b8452602084019350506020810190506118d4565b5050509392505050565b600082601f83011261191a57611919610f22565b5b815161192a84826020860161189c565b91505092915050565b60006020828403121561194957611948610ea4565b5b600082015167ffffffffffffffff81111561196757611966610ea9565b5b61197384828501611905565b9150509291505056fea26469706673582212203ae7cf770fdd1084d9f32a6cdea41a4d3f01726e756b18d9fef62c1c451b8a6264736f6c634300080a0033",
  "immutableReferences": {
    "29": [
      {
        "length": 32,
        "start": 2205
      },
      {
        "length": 32,
        "start": 2425
      },
      {
        "length": 32,
        "start": 2715
      }
    ],
    "384": [
      {
        "length": 32,
        "start": 358
      }
    ],
    "388": [
      {
        "length": 32,
        "start": 1328
      },
      {
        "length": 32,
        "start": 1988
      },
      {
        "length": 32,
        "start": 2169
      }
    ]
  },
  "source": "// SPDX-License-Identifier: MIT\npragma solidity ^0.8.0;\n\nimport { FlashLoanSimpleReceiverBase } from './FlashLoanSimpleReceiverBase.sol';\nimport { IPoolAddressesProvider } from '../interfaces/IPoolAddressesProvider.sol';\nimport { IPool } from '../interfaces/IPool.sol';\nimport { IERC20 } from '../interfaces/IERC20.sol';\nimport '../contracts/IUniswapRouterV2.sol';\nimport \"./console.sol\";\nimport './ISwapRouter.sol';\n\ncontract AaveFlashLoan is FlashLoanSimpleReceiverBase {\n    event ReturnAmouint(uint256 _ReturnAmouint);\n    address __tokenOut;\n    uint  DEX1;\n    uint  DEX2;\n    uint  _ReturnAmouint;\n    ISwapRouter public immutable swapRouter;\n    address public constant ROUTER = 0xa5E0829CaCEd8fFDD4De3c43696c57F7D7A678ff;\n    // For this example, we will set the pool fee to 0.01%.\n    uint24 public constant poolFee = 500;\n    constructor(IPoolAddressesProvider _provider, ISwapRouter _swapRouter) FlashLoanSimpleReceiverBase(_provider) {swapRouter = _swapRouter;}\n\n    function executeOperation(\n        address asset,\n        uint256 amount,\n        uint256 premium,\n        address initiator,\n        bytes calldata params\n    ) external override returns (bool) {\n    //   any actions that need to be performed by the loan goes here\n    uint256 totalOwed = amount + premium;\n    console.log(\"asset: %s\",IERC20(asset).balanceOf(address(this)));\n\n    if(DEX1==0){\n        swapExactInputSingle(asset,__tokenOut,amount);\n    }else{\n        swap_quickswap(asset,__tokenOut,amount);\n    }\n\n    if(DEX2==0){\n        swapExactInputSingle(__tokenOut,asset,IERC20(__tokenOut).balanceOf(address(this)));\n    }else{\n        swap_quickswap(__tokenOut,asset,IERC20(__tokenOut).balanceOf(address(this)));\n    }\n\n\n    require(IERC20(asset).balanceOf(address(this)) > totalOwed, \"NOT enough token to paid back!\");\n    // Approve the pool to deduct the amount owed from the contract\n    IERC20(asset).approve(address(POOL), totalOwed);\n\n    uint256 sendBackToken = IERC20(asset).balanceOf(address(this)) - totalOwed;\n    console.log(\"sendBackToken: %s\",sendBackToken);\n    // address MainAccount = 0x85D6EceC4F3cD8AE8DF22dcE8437085B4C2A1E4a;\n    address MainAccount = 0x32d55Dd4EAe334110c26Ecb3217AF267117922D3;\n    IERC20(asset).transfer(MainAccount,sendBackToken);\n    emit ReturnAmouint(sendBackToken);\n    return true;\n  }\n\n  function getFlashLoan(\n        address asset,\n        address _tokenOut,\n        uint256 amount,\n        uint    _DEX1,\n        uint    _DEX2\n    ) public {\n        address receiverAddress = address(this);\n\n        bytes memory params = \"\";\n        uint16 referralCode = 0;\n        __tokenOut = _tokenOut;\n        DEX1 = _DEX1;\n        DEX2 = _DEX2;\n\n        POOL.flashLoanSimple(\n            receiverAddress,\n            asset,\n            amount,\n            params,\n            referralCode\n        );\n    }\n\n    function swap_quickswap(address _tokenIn,address _tokenOut,uint256 amount) internal {\n        \n        require(IERC20(_tokenIn).approve(ROUTER, amount), 'approve failed.');\n        \n        address[] memory path;\n        path = new address[](2);\n        path[0] = _tokenIn ;\n        path[1] = _tokenOut;\n        IUniswapRouterV2(ROUTER).swapExactTokensForTokens(amount, 1, path, address(this), block.timestamp);\n    }\n\n    function swapExactInputSingle(address _tokenIn,address _tokenOut,uint256 _amountIn) internal {\n        // address UniswapRouterV3 = 0xE592427A0AEce92De3Edee1F18E0157C05861564;\n        // Approve the router to spend tokenIn.\n        IERC20(_tokenIn).approve(address(swapRouter), _amountIn);\n\n        ISwapRouter.ExactInputSingleParams memory params =\n            ISwapRouter.ExactInputSingleParams({\n                tokenIn: _tokenIn,\n                tokenOut: _tokenOut,\n                fee: poolFee,\n                recipient: address(this),\n                deadline: block.timestamp,\n                amountIn: _amountIn,\n                amountOutMinimum: 0,\n                sqrtPriceLimitX96: 0\n            });\n\n        // The call to `exactInputSingle` executes the swap.\n        swapRouter.exactInputSingle(params);\n    }\n\n}",
  "sourcePath": "/Users/vichuang/Documents/Python Project/AaveFlashloan/contracts/AaveFlashloan.sol",
  "compiler": {
    "name": "solc",
    "version": "0.8.10+commit.fc410830.Emscripten.clang"
  },
  "schemaVersion": "3.4.3",
  "updatedAt": "2023-01-12T23:49:10.876Z",
  "networkType": "ethereum",
  "devdoc": {
    "kind": "dev",
    "methods": {
      "executeOperation(address,uint256,uint256,address,bytes)": {
        "details": "Ensure that the contract can return the debt + premium, e.g., has      enough funds to repay and has approved the Pool to pull the total amount",
        "params": {
          "amount": "The amount of the flash-borrowed asset",
          "asset": "The address of the flash-borrowed asset",
          "initiator": "The address of the flashloan initiator",
          "params": "The byte-encoded params passed when initiating the flashloan",
          "premium": "The fee of the flash-borrowed asset"
        },
        "returns": {
          "_0": "True if the execution of the operation succeeds, false otherwise"
        }
      }
    },
    "version": 1
  },
  "userdoc": {
    "kind": "user",
    "methods": {
      "executeOperation(address,uint256,uint256,address,bytes)": {
        "notice": "Executes an operation after receiving the flash-borrowed asset"
      }
    },
    "version": 1
  }
}