{
  "contractName": "eventTest",
  "abi": [
    {
      "anonymous": false,
      "inputs": [
        {
          "indexed": false,
          "internalType": "uint256",
          "name": "val",
          "type": "uint256"
        }
      ],
      "name": "eTest",
      "type": "event"
    },
    {
      "inputs": [
        {
          "internalType": "uint256",
          "name": "_val",
          "type": "uint256"
        }
      ],
      "name": "Test",
      "outputs": [],
      "stateMutability": "nonpayable",
      "type": "function"
    }
  ],
  "bytecode": "0x608060405234801561001057600080fd5b50610157806100206000396000f3fe608060405234801561001057600080fd5b506004361061002b5760003560e01c806363a242a614610030575b600080fd5b61004a600480360381019061004591906100ca565b61004c565b005b806000819055507f639e28203c7ac93c66a85f7ec8d3c55274511404d9f8d09dd06559365676e3cf6000546040516100849190610106565b60405180910390a150565b600080fd5b6000819050919050565b6100a781610094565b81146100b257600080fd5b50565b6000813590506100c48161009e565b92915050565b6000602082840312156100e0576100df61008f565b5b60006100ee848285016100b5565b91505092915050565b61010081610094565b82525050565b600060208201905061011b60008301846100f7565b9291505056fea2646970667358221220fb8f4f3c04ce5aed8e8159ee918f290d46ccef2cfef722dd636dac22cc71c9b964736f6c634300080a0033",
  "immutableReferences": {},
  "source": "\t// SPDX-License-Identifier: MIT\npragma solidity ^0.8.0;\ncontract eventTest {\n   event eTest(uint256 val);\n   uint256 val;\n   function Test(uint256 _val) public {\n         val = _val;\n         emit eTest(val);\n  }\n}",
  "sourcePath": "/Users/vichuang/Documents/Python Project/AaveFlashloan/contracts/eventTest.sol",
  "compiler": {
    "name": "solc",
    "version": "0.8.10+commit.fc410830.Emscripten.clang"
  },
  "schemaVersion": "3.4.3",
  "updatedAt": "2022-12-13T15:05:56.930Z",
  "networkType": "ethereum",
  "devdoc": {
    "kind": "dev",
    "methods": {},
    "version": 1
  },
  "userdoc": {
    "kind": "user",
    "methods": {},
    "version": 1
  }
}