{
  "contractName": "Quickswap",
  "abi": [
    {
      "inputs": [],
      "name": "ROUTER",
      "outputs": [
        {
          "internalType": "address",
          "name": "",
          "type": "address"
        }
      ],
      "stateMutability": "view",
      "type": "function",
      "constant": true
    },
    {
      "inputs": [
        {
          "internalType": "address",
          "name": "_tokenIn",
          "type": "address"
        },
        {
          "internalType": "address",
          "name": "_tokenOut",
          "type": "address"
        },
        {
          "internalType": "uint256",
          "name": "amount",
          "type": "uint256"
        }
      ],
      "name": "swap_quickswap",
      "outputs": [],
      "stateMutability": "nonpayable",
      "type": "function"
    }
  ],
  "bytecode": "0x608060405234801561001057600080fd5b50610b45806100206000396000f3fe608060405234801561001057600080fd5b50600436106100365760003560e01c806332fe7b261461003b5780639c4f787614610059575b600080fd5b610043610075565b604051610050919061049a565b60405180910390f35b610073600480360381019061006e919061052b565b61008d565b005b73a5e0829caced8ffdd4de3c43696c57f7d7a678ff81565b600083905061009e84333085610301565b8073ffffffffffffffffffffffffffffffffffffffff1663095ea7b373a5e0829caced8ffdd4de3c43696c57f7d7a678ff846040518363ffffffff1660e01b81526004016100ed92919061058d565b6020604051808303816000875af115801561010c573d6000803e3d6000fd5b505050506040513d601f19601f8201168201806040525081019061013091906105ee565b61016f576040517f08c379a000000000000000000000000000000000000000000000000000000000815260040161016690610678565b60405180910390fd5b6060600267ffffffffffffffff81111561018c5761018b610698565b5b6040519080825280602002602001820160405280156101ba5781602001602082028036833780820191505090505b50905084816000815181106101d2576101d16106c7565b5b602002602001019073ffffffffffffffffffffffffffffffffffffffff16908173ffffffffffffffffffffffffffffffffffffffff16815250508381600181518110610221576102206106c7565b5b602002602001019073ffffffffffffffffffffffffffffffffffffffff16908173ffffffffffffffffffffffffffffffffffffffff168152505073a5e0829caced8ffdd4de3c43696c57f7d7a678ff73ffffffffffffffffffffffffffffffffffffffff166338ed17398460018433426040518663ffffffff1660e01b81526004016102b19594939291906107f9565b6000604051808303816000875af11580156102d0573d6000803e3d6000fd5b505050506040513d6000823e3d601f19601f820116820180604052508101906102f99190610992565b505050505050565b6000808573ffffffffffffffffffffffffffffffffffffffff166323b872dd60e01b868686604051602401610338939291906109db565b604051602081830303815290604052907bffffffffffffffffffffffffffffffffffffffffffffffffffffffff19166020820180517bffffffffffffffffffffffffffffffffffffffffffffffffffffffff83818316178352505050506040516103a29190610a8c565b6000604051808303816000865af19150503d80600081146103df576040519150601f19603f3d011682016040523d82523d6000602084013e6103e4565b606091505b5091509150818015610412575060008151148061041157508080602001905181019061041091906105ee565b5b5b610451576040517f08c379a000000000000000000000000000000000000000000000000000000000815260040161044890610aef565b60405180910390fd5b505050505050565b600073ffffffffffffffffffffffffffffffffffffffff82169050919050565b600061048482610459565b9050919050565b61049481610479565b82525050565b60006020820190506104af600083018461048b565b92915050565b6000604051905090565b600080fd5b600080fd5b6104d281610479565b81146104dd57600080fd5b50565b6000813590506104ef816104c9565b92915050565b6000819050919050565b610508816104f5565b811461051357600080fd5b50565b600081359050610525816104ff565b92915050565b600080600060608486031215610544576105436104bf565b5b6000610552868287016104e0565b9350506020610563868287016104e0565b925050604061057486828701610516565b9150509250925092565b610587816104f5565b82525050565b60006040820190506105a2600083018561048b565b6105af602083018461057e565b9392505050565b60008115159050919050565b6105cb816105b6565b81146105d657600080fd5b50565b6000815190506105e8816105c2565b92915050565b600060208284031215610604576106036104bf565b5b6000610612848285016105d9565b91505092915050565b600082825260208201905092915050565b7f617070726f7665206661696c65642e0000000000000000000000000000000000600082015250565b6000610662600f8361061b565b915061066d8261062c565b602082019050919050565b6000602082019050818103600083015261069181610655565b9050919050565b7f4e487b7100000000000000000000000000000000000000000000000000000000600052604160045260246000fd5b7f4e487b7100000000000000000000000000000000000000000000000000000000600052603260045260246000fd5b6000819050919050565b6000819050919050565b600061072561072061071b846106f6565b610700565b6104f5565b9050919050565b6107358161070a565b82525050565b600081519050919050565b600082825260208201905092915050565b6000819050602082019050919050565b61077081610479565b82525050565b60006107828383610767565b60208301905092915050565b6000602082019050919050565b60006107a68261073b565b6107b08185610746565b93506107bb83610757565b8060005b838110156107ec5781516107d38882610776565b97506107de8361078e565b9250506001810190506107bf565b5085935050505092915050565b600060a08201905061080e600083018861057e565b61081b602083018761072c565b818103604083015261082d818661079b565b905061083c606083018561048b565b610849608083018461057e565b9695505050505050565b600080fd5b6000601f19601f8301169050919050565b61087282610858565b810181811067ffffffffffffffff8211171561089157610890610698565b5b80604052505050565b60006108a46104b5565b90506108b08282610869565b919050565b600067ffffffffffffffff8211156108d0576108cf610698565b5b602082029050602081019050919050565b600080fd5b6000815190506108f5816104ff565b92915050565b600061090e610909846108b5565b61089a565b90508083825260208201905060208402830185811115610931576109306108e1565b5b835b8181101561095a578061094688826108e6565b845260208401935050602081019050610933565b5050509392505050565b600082601f83011261097957610978610853565b5b81516109898482602086016108fb565b91505092915050565b6000602082840312156109a8576109a76104bf565b5b600082015167ffffffffffffffff8111156109c6576109c56104c4565b5b6109d284828501610964565b91505092915050565b60006060820190506109f0600083018661048b565b6109fd602083018561048b565b610a0a604083018461057e565b949350505050565b600081519050919050565b600081905092915050565b60005b83811015610a46578082015181840152602081019050610a2b565b83811115610a55576000848401525b50505050565b6000610a6682610a12565b610a708185610a1d565b9350610a80818560208601610a28565b80840191505092915050565b6000610a988284610a5b565b915081905092915050565b7f5354460000000000000000000000000000000000000000000000000000000000600082015250565b6000610ad960038361061b565b9150610ae482610aa3565b602082019050919050565b60006020820190508181036000830152610b0881610acc565b905091905056fea264697066735822122064a7f66be5b75d6513f3d6b048318a9de663a54469a30e73701dd655eff4e3dd64736f6c634300080a0033",
  "immutableReferences": {},
  "source": "// SPDX-License-Identifier: GPL-2.0-or-later\npragma solidity <= 0.8.17;\n\nimport \"../contracts/console.sol\";\nimport \"../contracts/IERC20.sol\";\nimport \"../contracts/TransferHelper.sol\";\nimport '../contracts/IUniswapRouterV2.sol';\n\ncontract Quickswap{\n    address public constant ROUTER = 0xa5E0829CaCEd8fFDD4De3c43696c57F7D7A678ff;\n    \n    function swap_quickswap(address _tokenIn,address _tokenOut,uint256 amount) public {\n        \n        IERC20 fromtokenContract = IERC20(_tokenIn);\n\n        TransferHelper.safeTransferFrom(_tokenIn, msg.sender, address(this), amount);\n\n        require(fromtokenContract.approve(ROUTER, amount), 'approve failed.');\n        \n        address[] memory path;\n        path = new address[](2);\n        path[0] = _tokenIn ;\n        path[1] = _tokenOut;\n        IUniswapRouterV2(ROUTER).swapExactTokensForTokens(amount, 1, path, msg.sender, block.timestamp);\n    }\n}",
  "sourcePath": "/Users/vichuang/Documents/Python Project/AaveFlashloan/contracts/Quickswap.sol",
  "compiler": {
    "name": "solc",
    "version": "0.8.10+commit.fc410830.Emscripten.clang"
  },
  "schemaVersion": "3.4.3",
  "updatedAt": "2023-01-12T23:49:10.864Z",
  "networkType": "ethereum",
  "devdoc": {
    "kind": "dev",
    "methods": {},
    "version": 1
  },
  "userdoc": {
    "kind": "user",
    "methods": {},
    "version": 1
  }
}