{
  "contractName": "UniSwapExamples",
  "abi": [
    {
      "inputs": [
        {
          "internalType": "contract ISwapRouter",
          "name": "_swapRouter",
          "type": "address"
        }
      ],
      "stateMutability": "nonpayable",
      "type": "constructor"
    },
    {
      "inputs": [],
      "name": "poolFee",
      "outputs": [
        {
          "internalType": "uint24",
          "name": "",
          "type": "uint24"
        }
      ],
      "stateMutability": "view",
      "type": "function",
      "constant": true
    },
    {
      "inputs": [],
      "name": "swapRouter",
      "outputs": [
        {
          "internalType": "contract ISwapRouter",
          "name": "",
          "type": "address"
        }
      ],
      "stateMutability": "view",
      "type": "function",
      "constant": true
    },
    {
      "inputs": [
        {
          "internalType": "address",
          "name": "_tokenIn",
          "type": "address"
        },
        {
          "internalType": "address",
          "name": "_tokenOut",
          "type": "address"
        },
        {
          "internalType": "uint256",
          "name": "_amountIn",
          "type": "uint256"
        }
      ],
      "name": "swapExactInputSingle",
      "outputs": [
        {
          "internalType": "uint256",
          "name": "amountOut",
          "type": "uint256"
        }
      ],
      "stateMutability": "nonpayable",
      "type": "function"
    }
  ],
  "bytecode": "0x60a06040523480156200001157600080fd5b5060405162000f6838038062000f688339818101604052810190620000379190620000f0565b8073ffffffffffffffffffffffffffffffffffffffff1660808173ffffffffffffffffffffffffffffffffffffffff16815250505062000122565b600080fd5b600073ffffffffffffffffffffffffffffffffffffffff82169050919050565b6000620000a48262000077565b9050919050565b6000620000b88262000097565b9050919050565b620000ca81620000ab565b8114620000d657600080fd5b50565b600081519050620000ea81620000bf565b92915050565b60006020828403121562000109576200010862000072565b5b60006200011984828501620000d9565b91505092915050565b608051610e1d6200014b6000396000818160ba0152818161016e01526102720152610e1d6000f3fe608060405234801561001057600080fd5b50600436106100415760003560e01c8063089fe6aa14610046578063c31c9c0714610064578063ceb9201214610082575b600080fd5b61004e6100b2565b60405161005b91906107db565b60405180910390f35b61006c6100b8565b6040516100799190610875565b60405180910390f35b61009c60048036038101906100979190610909565b6100dc565b6040516100a9919061096b565b60405180910390f35b6101f481565b7f000000000000000000000000000000000000000000000000000000000000000081565b600061011d6040518060400160405280601681526020017f6d73672e73656e64657220616464726573733a2025730000000000000000000081525033610316565b610129843330856103b2565b6101686040518060400160405280601b81526020017f62616c616e63652073656e642066726f6d2073656e64723a20257300000000008152504761050a565b610193847f0000000000000000000000000000000000000000000000000000000000000000846105a6565b6101d16040518060400160405280600c81526020017f5041535320415050524f564500000000000000000000000000000000000000008152506106fb565b60006040518061010001604052808673ffffffffffffffffffffffffffffffffffffffff1681526020018573ffffffffffffffffffffffffffffffffffffffff1681526020016101f462ffffff1681526020013373ffffffffffffffffffffffffffffffffffffffff16815260200142815260200184815260200160008152602001600073ffffffffffffffffffffffffffffffffffffffff1681525090507f000000000000000000000000000000000000000000000000000000000000000073ffffffffffffffffffffffffffffffffffffffff1663414bf389826040518263ffffffff1660e01b81526004016102c99190610a64565b6020604051808303816000875af11580156102e8573d6000803e3d6000fd5b505050506040513d601f19601f8201168201806040525081019061030c9190610a95565b9150509392505050565b6103ae828260405160240161032c929190610b6a565b6040516020818303038152906040527f319af333000000000000000000000000000000000000000000000000000000007bffffffffffffffffffffffffffffffffffffffffffffffffffffffff19166020820180517bffffffffffffffffffffffffffffffffffffffffffffffffffffffff8381831617835250505050610794565b5050565b6000808573ffffffffffffffffffffffffffffffffffffffff166323b872dd60e01b8686866040516024016103e993929190610b9a565b604051602081830303815290604052907bffffffffffffffffffffffffffffffffffffffffffffffffffffffff19166020820180517bffffffffffffffffffffffffffffffffffffffffffffffffffffffff83818316178352505050506040516104539190610c18565b6000604051808303816000865af19150503d8060008114610490576040519150601f19603f3d011682016040523d82523d6000602084013e610495565b606091505b50915091508180156104c357506000815114806104c25750808060200190518101906104c19190610c67565b5b5b610502576040517f08c379a00000000000000000000000000000000000000000000000000000000081526004016104f990610ce0565b60405180910390fd5b505050505050565b6105a28282604051602401610520929190610d00565b6040516020818303038152906040527f9710a9d0000000000000000000000000000000000000000000000000000000007bffffffffffffffffffffffffffffffffffffffffffffffffffffffff19166020820180517bffffffffffffffffffffffffffffffffffffffffffffffffffffffff8381831617835250505050610794565b5050565b6000808473ffffffffffffffffffffffffffffffffffffffff1663095ea7b360e01b85856040516024016105db929190610d30565b604051602081830303815290604052907bffffffffffffffffffffffffffffffffffffffffffffffffffffffff19166020820180517bffffffffffffffffffffffffffffffffffffffffffffffffffffffff83818316178352505050506040516106459190610c18565b6000604051808303816000865af19150503d8060008114610682576040519150601f19603f3d011682016040523d82523d6000602084013e610687565b606091505b50915091508180156106b557506000815114806106b45750808060200190518101906106b39190610c67565b5b5b6106f4576040517f08c379a00000000000000000000000000000000000000000000000000000000081526004016106eb90610da5565b60405180910390fd5b5050505050565b6107918160405160240161070f9190610dc5565b6040516020818303038152906040527f41304fac000000000000000000000000000000000000000000000000000000007bffffffffffffffffffffffffffffffffffffffffffffffffffffffff19166020820180517bffffffffffffffffffffffffffffffffffffffffffffffffffffffff8381831617835250505050610794565b50565b60008151905060006a636f6e736f6c652e6c6f679050602083016000808483855afa5050505050565b600062ffffff82169050919050565b6107d5816107bd565b82525050565b60006020820190506107f060008301846107cc565b92915050565b600073ffffffffffffffffffffffffffffffffffffffff82169050919050565b6000819050919050565b600061083b610836610831846107f6565b610816565b6107f6565b9050919050565b600061084d82610820565b9050919050565b600061085f82610842565b9050919050565b61086f81610854565b82525050565b600060208201905061088a6000830184610866565b92915050565b600080fd5b60006108a0826107f6565b9050919050565b6108b081610895565b81146108bb57600080fd5b50565b6000813590506108cd816108a7565b92915050565b6000819050919050565b6108e6816108d3565b81146108f157600080fd5b50565b600081359050610903816108dd565b92915050565b60008060006060848603121561092257610921610890565b5b6000610930868287016108be565b9350506020610941868287016108be565b9250506040610952868287016108f4565b9150509250925092565b610965816108d3565b82525050565b6000602082019050610980600083018461095c565b92915050565b61098f81610895565b82525050565b61099e816107bd565b82525050565b6109ad816108d3565b82525050565b6109bc816107f6565b82525050565b610100820160008201516109d96000850182610986565b5060208201516109ec6020850182610986565b5060408201516109ff6040850182610995565b506060820151610a126060850182610986565b506080820151610a2560808501826109a4565b5060a0820151610a3860a08501826109a4565b5060c0820151610a4b60c08501826109a4565b5060e0820151610a5e60e08501826109b3565b50505050565b600061010082019050610a7a60008301846109c2565b92915050565b600081519050610a8f816108dd565b92915050565b600060208284031215610aab57610aaa610890565b5b6000610ab984828501610a80565b91505092915050565b600081519050919050565b600082825260208201905092915050565b60005b83811015610afc578082015181840152602081019050610ae1565b83811115610b0b576000848401525b50505050565b6000601f19601f8301169050919050565b6000610b2d82610ac2565b610b378185610acd565b9350610b47818560208601610ade565b610b5081610b11565b840191505092915050565b610b6481610895565b82525050565b60006040820190508181036000830152610b848185610b22565b9050610b936020830184610b5b565b9392505050565b6000606082019050610baf6000830186610b5b565b610bbc6020830185610b5b565b610bc9604083018461095c565b949350505050565b600081519050919050565b600081905092915050565b6000610bf282610bd1565b610bfc8185610bdc565b9350610c0c818560208601610ade565b80840191505092915050565b6000610c248284610be7565b915081905092915050565b60008115159050919050565b610c4481610c2f565b8114610c4f57600080fd5b50565b600081519050610c6181610c3b565b92915050565b600060208284031215610c7d57610c7c610890565b5b6000610c8b84828501610c52565b91505092915050565b7f5354460000000000000000000000000000000000000000000000000000000000600082015250565b6000610cca600383610acd565b9150610cd582610c94565b602082019050919050565b60006020820190508181036000830152610cf981610cbd565b9050919050565b60006040820190508181036000830152610d1a8185610b22565b9050610d29602083018461095c565b9392505050565b6000604082019050610d456000830185610b5b565b610d52602083018461095c565b9392505050565b7f5341000000000000000000000000000000000000000000000000000000000000600082015250565b6000610d8f600283610acd565b9150610d9a82610d59565b602082019050919050565b60006020820190508181036000830152610dbe81610d82565b9050919050565b60006020820190508181036000830152610ddf8184610b22565b90509291505056fea26469706673582212201e609bc834f390e0d0ae604c60e8ef8c8f56c670def5aedff137d2b9cdbca66f64736f6c634300080a0033",
  "immutableReferences": {
    "371": [
      {
        "length": 32,
        "start": 186
      },
      {
        "length": 32,
        "start": 366
      },
      {
        "length": 32,
        "start": 626
      }
    ]
  },
  "source": "// SPDX-License-Identifier: GPL-2.0-or-later\npragma solidity <= 0.8.17;\npragma abicoder v2;\n\nimport \"./console.sol\";\nimport \"./TransferHelper.sol\";\nimport './ISwapRouter.sol';\n\ncontract UniSwapExamples {\n    // For the scope of these swap examples,\n    // we will detail the design considerations when using\n    // `exactInput`, `exactInputSingle`, `exactOutput`, and  `exactOutputSingle`.\n\n    // It should be noted that for the sake of these examples, we purposefully pass in the swap router instead of inherit the swap router for simplicity.\n    // More advanced example contracts will detail how to inherit the swap router safely.\n\n    ISwapRouter public immutable swapRouter;\n\n    // For this example, we will set the pool fee to 0.3%.\n    uint24 public constant poolFee = 500;\n\n    constructor(ISwapRouter _swapRouter) {\n        swapRouter = _swapRouter;\n    }\n\n    function swapExactInputSingle(address _tokenIn,address _tokenOut,uint256 _amountIn) external returns (uint256 amountOut) {\n        // msg.sender must approve this contract\n\n        console.log(\"msg.sender address: %s\",msg.sender);\n        // Transfer the specified amount of DAI to this contract.\n        TransferHelper.safeTransferFrom(_tokenIn, msg.sender, address(this), _amountIn);\n        console.log(\"balance send from sendr: %s\",address(this).balance);\n        // Approve the router to spend DAI.\n        TransferHelper.safeApprove(_tokenIn, address(swapRouter), _amountIn);\n        console.log(\"PASS APPROVE\");\n        // Naively set amountOutMinimum to 0. In production, use an oracle or other data source to choose a safer value for amountOutMinimum.\n        // We also set the sqrtPriceLimitx96 to be 0 to ensure we swap our exact input amount.\n        ISwapRouter.ExactInputSingleParams memory params =\n            ISwapRouter.ExactInputSingleParams({\n                tokenIn: _tokenIn,\n                tokenOut: _tokenOut,\n                fee: poolFee,\n                recipient: msg.sender,\n                deadline: block.timestamp,\n                amountIn: _amountIn,\n                amountOutMinimum: 0,\n                sqrtPriceLimitX96: 0\n            });\n\n        // The call to `exactInputSingle` executes the swap.\n        amountOut = swapRouter.exactInputSingle(params);\n    }\n}",
  "sourcePath": "/Users/vichuang/Documents/Python Project/AaveFlashloan/contracts/Uniswap.sol",
  "compiler": {
    "name": "solc",
    "version": "0.8.10+commit.fc410830.Emscripten.clang"
  },
  "schemaVersion": "3.4.3",
  "updatedAt": "2022-12-13T15:05:56.825Z",
  "networkType": "ethereum",
  "devdoc": {
    "kind": "dev",
    "methods": {},
    "version": 1
  },
  "userdoc": {
    "kind": "user",
    "methods": {},
    "version": 1
  }
}